:1000000012C0FECFFDCFFCCFFBCFFACFF9CFF8CF98
:10001000F7CFF6CF0000000001000200140002003C
:10002000040016000000F894EE27ECBBE5BFF8E1F1
:10003000A4B7A77FA4BFF1BDE1BD8DE0A2E0ED9321
:100040008A95E9F780E4A0E6ED938A95E9F7E8E17F
:10005000F0E0C8953196802DC8953196902D009787
:10006000B9F0C8953196A02DC8953196B02DC89598
:100070003196102CC89531966E2F7F2FF02DE12DE3
:10008000C89531960D920197D9F7E62FF72FE1CF5A
:10009000EFE9EDBFC0E725C0E3E0F0E0E415F505CA
:1000A00034F444245524E0E9F1E04BD00CC0C49A68
:1000B000E4E6F0E046D0C498E2E3F0E042D0E1E0CC
:1000C000F0E04E0E5F1E0895E881E7B985E38A955A
:1000D000F1F7369A349BFECF349AE4B1F5B121960C
:1000E0000895E0E8E6BDE0E0E6BDE1E0E8BBE6E17A
:1000F000E7BBE0E0EFBDE3BFE2BFE6BFE9BDEBBFBA
:10010000E5BFE9BFE0E8E8B9E0E0E3B9E4BBE4B3A8
:10011000E370E4BBE4B3E463E4BBE0E0E7B9E4E844
:10012000E6B9B09B0AC020FC04C0E3E0EA93CCDF50
:1001300008D0B2DF689420F8F4CFE89420F8F1CF2B
:10014000FFCFFA93EA9300C0E991F991309639F024
:1001500080EA9FE00197F1F7A8953197C9F70895D4
:00000001FF
