:0C0000000FC0FECFFDCFFCCFFBCFFACF2E
:10000C005AC0F8CFF7CFF6CF000000000400040070
:10001C0014000000F894EE27ECBBE5BFF8E1A4B7A0
:10002C00A77FA4BFF1BDE1BD8DE0A2E0ED938A9561
:10003C00E9F780E4A0E6ED938A95E9F7E8E1F0E0D2
:10004C00C8953196802DC8953196902D0097B9F0B2
:10005C00C8953196A02DC8953196B02DC89531967E
:10006C00102CC89531966E2F7F2FF02DE12DC89551
:10007C0031960D920197D9F7E62FF72FE1CFEFE9E3
:10008C00EDBFC0E732C0E3E0F0E0E415F50534F471
:10009C0044245524E4EFF1E064D00CC0C498E4E6A9
:1000AC00F0E05FD0C49AE2E3F0E05BD0E1E0F0E096
:1000BC004E0E5F1E0895EA93FA93EFB7EA93E1E0D0
:1000CC00F0E06E0E7F1EE991EFBFF991E991189562
:1000DC00E881E7B980E18A95F1F7369A349BFECF37
:1000EC00349AE4B1F5B121960895E0E8E6BDE0E07C
:1000FC00E6BDE1E0E8BBE0E1E7BBE0E0E2BFEFEF4B
:10010C00E6BFE0E0E9BDEBBFE5BFE4E0E9BFE0E856
:10011C00E8B9E0E0E3B9E4BBE4B3E370E4BBE4B317
:10012C00E463E4BBE0E0E7B9E3E8E6B97894C49AA9
:10013C00B09B0FC0E2E0EFBDE5E0E3BFE3E0EA9384
:10014C00C7DFA3E0B0E01CD0E615F70508F49BDF91
:10015C0006C0E0E0EFBDE3BFC49A66247724E8CF85
:10016C00FFCFFA93EA9300C0E991F991309639F0F8
:10017C0080EB94E00197F1F7A8953197C9F70895B2
:10018C000A2E1B2E81E1AA27BB1B05C010F4A00D63
:10019C00B11DB695A795F795E7958A95B9F708958A
:00000001FF
